{
  "contractName": "Deposit",
  "abi": [
    {
      "inputs": [
        {
          "internalType": "contract IERC20",
          "name": "_token",
          "type": "address"
        }
      ],
      "stateMutability": "nonpayable",
      "type": "constructor"
    },
    {
      "inputs": [
        {
          "internalType": "address",
          "name": "",
          "type": "address"
        }
      ],
      "name": "balances",
      "outputs": [
        {
          "internalType": "uint256",
          "name": "",
          "type": "uint256"
        }
      ],
      "stateMutability": "view",
      "type": "function",
      "constant": true
    },
    {
      "inputs": [],
      "name": "token",
      "outputs": [
        {
          "internalType": "contract IERC20",
          "name": "",
          "type": "address"
        }
      ],
      "stateMutability": "view",
      "type": "function",
      "constant": true
    },
    {
      "inputs": [
        {
          "internalType": "uint256",
          "name": "_amount",
          "type": "uint256"
        }
      ],
      "name": "deposit",
      "outputs": [],
      "stateMutability": "nonpayable",
      "type": "function"
    },
    {
      "inputs": [
        {
          "internalType": "address",
          "name": "_userAddress",
          "type": "address"
        }
      ],
      "name": "balanceOf",
      "outputs": [
        {
          "internalType": "uint256",
          "name": "",
          "type": "uint256"
        }
      ],
      "stateMutability": "view",
      "type": "function",
      "constant": true
    }
  ],
  "bytecode": "0x608060405234801561001057600080fd5b5060405161025f38038061025f8339818101604052602081101561003357600080fd5b5051600180546001600160a01b0319166001600160a01b039092169190911790556101fc806100636000396000f3fe608060405234801561001057600080fd5b506004361061004c5760003560e01c806327e235e31461005157806370a0823114610089578063b6b55f25146100af578063fc0c546a146100ce575b600080fd5b6100776004803603602081101561006757600080fd5b50356001600160a01b03166100f2565b60408051918252519081900360200190f35b6100776004803603602081101561009f57600080fd5b50356001600160a01b0316610104565b6100cc600480360360208110156100c557600080fd5b503561011f565b005b6100d66101b7565b604080516001600160a01b039092168252519081900360200190f35b60006020819052908152604090205481565b6001600160a01b031660009081526020819052604090205490565b3360008181526020818152604080832085905560015481516323b872dd60e01b815260048101959095523060248601526044850186905290516001600160a01b03909116936323b872dd9360648083019493928390030190829087803b15801561018857600080fd5b505af115801561019c573d6000803e3d6000fd5b505050506040513d60208110156101b257600080fd5b505050565b6001546001600160a01b03168156fea2646970667358221220a512a35ea78d5f8797acc031dbe6b098e906ca281d532e1f36c62f3a2f0f51ae64736f6c634300060c0033",
  "immutableReferences": {},
  "source": "pragma solidity 0.6.12;\n\nimport \"@openzeppelin/contracts/token/ERC20/IERC20.sol\";\n\ncontract Deposit {\n    mapping(address => uint256) public balances;\n\n    IERC20 public token;\n\n    constructor(IERC20 _token) public {\n        token = _token;\n    }\n\n    function deposit(uint256 _amount) external {\n        balances[msg.sender] = _amount;\n        token.transferFrom(msg.sender, address(this), _amount);\n    }\n\n    function balanceOf(address _userAddress) external view returns (uint256) {\n        return balances[_userAddress];\n    }\n}\n",
  "sourcePath": "/Users/vincentdealmeida/Projects/asset-swap-service/contracts/contracts/Deposit.sol",
  "compiler": {
    "name": "solc",
    "version": "0.6.12+commit.27d51765.Emscripten.clang"
  },
  "schemaVersion": "3.2.5",
  "updatedAt": "2020-09-30T15:51:00.322Z",
  "networkType": "ethereum",
  "devdoc": {
    "kind": "dev",
    "methods": {},
    "version": 1
  },
  "userdoc": {
    "kind": "user",
    "methods": {},
    "version": 1
  }
}