{
  "contractName": "Swap",
  "abi": [
    {
      "inputs": [],
      "stateMutability": "nonpayable",
      "type": "constructor"
    },
    {
      "inputs": [],
      "name": "tokenA",
      "outputs": [
        {
          "internalType": "contract IERC20",
          "name": "",
          "type": "address"
        }
      ],
      "stateMutability": "view",
      "type": "function",
      "constant": true
    },
    {
      "inputs": [],
      "name": "tokenB",
      "outputs": [
        {
          "internalType": "contract IERC20",
          "name": "",
          "type": "address"
        }
      ],
      "stateMutability": "view",
      "type": "function",
      "constant": true
    },
    {
      "inputs": [
        {
          "internalType": "contract IERC20",
          "name": "_input",
          "type": "address"
        },
        {
          "internalType": "uint256",
          "name": "_amount",
          "type": "uint256"
        },
        {
          "internalType": "uint256",
          "name": "_fee",
          "type": "uint256"
        },
        {
          "internalType": "address",
          "name": "_beneficiary",
          "type": "address"
        }
      ],
      "name": "swap",
      "outputs": [],
      "stateMutability": "nonpayable",
      "type": "function"
    },
    {
      "inputs": [
        {
          "internalType": "address",
          "name": "_tokenAddress",
          "type": "address"
        }
      ],
      "name": "isValidInputOrOutputToken",
      "outputs": [
        {
          "internalType": "bool",
          "name": "",
          "type": "bool"
        }
      ],
      "stateMutability": "view",
      "type": "function",
      "constant": true
    }
  ],
  "bytecode": "0x608060405234801561001057600080fd5b5060405161001d90610220565b60408082526007818301526646616b6544414960c81b60608301526080602083018190526003908301526244414960e81b60a0830152519081900360c001906000f080158015610071573d6000803e3d6000fd5b50600080546001600160a01b0319166001600160a01b039290921691909117905560405161009e90610220565b60408082526008818301526746616b657844414960c01b6060830152608060208301819052600490830152637844414960e01b60a0830152519081900360c001906000f0801580156100f4573d6000803e3d6000fd5b50600180546001600160a01b0319166001600160a01b03928316179055600080546040805163a9059cbb60e01b81523360048201526934f086f3b33b684000006024820181905291519194929092169263a9059cbb92604480820193602093909283900390910190829087803b15801561016d57600080fd5b505af1158015610181573d6000803e3d6000fd5b505050506040513d602081101561019757600080fd5b50506001546040805163a9059cbb60e01b81523360048201526024810184905290516001600160a01b039092169163a9059cbb916044808201926020929091908290030181600087803b1580156101ed57600080fd5b505af1158015610201573d6000803e3d6000fd5b505050506040513d602081101561021757600080fd5b5061022d915050565b610e108061063a83390190565b6103fe8061023c6000396000f3fe608060405234801561001057600080fd5b506004361061004c5760003560e01c80630fc63d10146100515780634da8073f146100755780635f64b55b146100af578063f3e6ea8a146100b7575b600080fd5b6100596100f3565b604080516001600160a01b039092168252519081900360200190f35b61009b6004803603602081101561008b57600080fd5b50356001600160a01b0316610102565b604080519115158252519081900360200190f35b610059610141565b6100f1600480360360808110156100cd57600080fd5b506001600160a01b0381358116916020810135916040820135916060013516610150565b005b6000546001600160a01b031681565b600080546001546001600160a01b03918216919081169084168214806101395750806001600160a01b0316846001600160a01b0316145b949350505050565b6001546001600160a01b031681565b60005484906001600160a01b03808316911614808061017c57506001546001600160a01b038381169116145b6101bd576040805162461bcd60e51b815260206004820152600d60248201526c125b9d985b1a59081a5b9c1d5d609a1b604482015290519081900360640190fd5b6000816101d5576000546001600160a01b03166101e2565b6001546001600160a01b03165b9050600030905086826001600160a01b03166370a08231836040518263ffffffff1660e01b815260040180826001600160a01b0316815260200191505060206040518083038186803b15801561023757600080fd5b505afa15801561024b573d6000803e3d6000fd5b505050506040513d602081101561026157600080fd5b505110156102aa576040805162461bcd60e51b81526020600482015260116024820152701b9bdd08195b9bdd59da081bdd5d1c1d5d607a1b604482015290519081900360640190fd5b876001600160a01b03166323b872dd86838a6040518463ffffffff1660e01b815260040180846001600160a01b03168152602001836001600160a01b031681526020018281526020019350505050602060405180830381600087803b15801561031257600080fd5b505af1158015610326573d6000803e3d6000fd5b505050506040513d602081101561033c57600080fd5b50506040805163a9059cbb60e01b81526001600160a01b038781166004830152888a03602483015291519184169163a9059cbb916044808201926020929091908290030181600087803b15801561039257600080fd5b505af11580156103a6573d6000803e3d6000fd5b505050506040513d60208110156103bc57600080fd5b5050505050505050505056fea26469706673582212200aa49b10cb1cc8f0850da4182db981a4bafa1ef3a7e05134aa9297d4a956919464736f6c634300060c003360806040523480156200001157600080fd5b5060405162000e1038038062000e10833981810160405260408110156200003757600080fd5b81019080805160405193929190846401000000008211156200005857600080fd5b9083019060208201858111156200006e57600080fd5b82516401000000008111828201881017156200008957600080fd5b82525081516020918201929091019080838360005b83811015620000b85781810151838201526020016200009e565b50505050905090810190601f168015620000e65780820380516001836020036101000a031916815260200191505b50604052602001805160405193929190846401000000008211156200010a57600080fd5b9083019060208201858111156200012057600080fd5b82516401000000008111828201881017156200013b57600080fd5b82525081516020918201929091019080838360005b838110156200016a57818101518382015260200162000150565b50505050905090810190601f168015620001985780820380516001836020036101000a031916815260200191505b50604052505082518391508290620001b890600390602085019062000372565b508051620001ce90600490602084019062000372565b50506005805460ff1916601217905550620001f43369d3c21bcecceda1000000620001fc565b50506200040e565b6001600160a01b03821662000258576040805162461bcd60e51b815260206004820152601f60248201527f45524332303a206d696e7420746f20746865207a65726f206164647265737300604482015290519081900360640190fd5b62000266600083836200030b565b62000282816002546200031060201b620005731790919060201c565b6002556001600160a01b03821660009081526020818152604090912054620002b59183906200057362000310821b17901c565b6001600160a01b0383166000818152602081815260408083209490945583518581529351929391927fddf252ad1be2c89b69c2b068fc378daa952ba7f163c4a11628f55a4df523b3ef9281900390910190a35050565b505050565b6000828201838110156200036b576040805162461bcd60e51b815260206004820152601b60248201527f536166654d6174683a206164646974696f6e206f766572666c6f770000000000604482015290519081900360640190fd5b9392505050565b828054600181600116156101000203166002900490600052602060002090601f016020900481019282601f10620003b557805160ff1916838001178555620003e5565b82800160010185558215620003e5579182015b82811115620003e5578251825591602001919060010190620003c8565b50620003f3929150620003f7565b5090565b5b80821115620003f35760008155600101620003f8565b6109f2806200041e6000396000f3fe608060405234801561001057600080fd5b50600436106100a95760003560e01c8063395093511161007157806339509351146101d957806370a082311461020557806395d89b411461022b578063a457c2d714610233578063a9059cbb1461025f578063dd62ed3e1461028b576100a9565b806306fdde03146100ae578063095ea7b31461012b57806318160ddd1461016b57806323b872dd14610185578063313ce567146101bb575b600080fd5b6100b66102b9565b6040805160208082528351818301528351919283929083019185019080838360005b838110156100f05781810151838201526020016100d8565b50505050905090810190601f16801561011d5780820380516001836020036101000a031916815260200191505b509250505060405180910390f35b6101576004803603604081101561014157600080fd5b506001600160a01b03813516906020013561034f565b604080519115158252519081900360200190f35b61017361036c565b60408051918252519081900360200190f35b6101576004803603606081101561019b57600080fd5b506001600160a01b03813581169160208101359091169060400135610372565b6101c36103f9565b6040805160ff9092168252519081900360200190f35b610157600480360360408110156101ef57600080fd5b506001600160a01b038135169060200135610402565b6101736004803603602081101561021b57600080fd5b50356001600160a01b0316610450565b6100b661046b565b6101576004803603604081101561024957600080fd5b506001600160a01b0381351690602001356104cc565b6101576004803603604081101561027557600080fd5b506001600160a01b038135169060200135610534565b610173600480360360408110156102a157600080fd5b506001600160a01b0381358116916020013516610548565b60038054604080516020601f60026000196101006001881615020190951694909404938401819004810282018101909252828152606093909290918301828280156103455780601f1061031a57610100808354040283529160200191610345565b820191906000526020600020905b81548152906001019060200180831161032857829003601f168201915b5050505050905090565b600061036361035c6105d4565b84846105d8565b50600192915050565b60025490565b600061037f8484846106c4565b6103ef8461038b6105d4565b6103ea85604051806060016040528060288152602001610927602891396001600160a01b038a166000908152600160205260408120906103c96105d4565b6001600160a01b03168152602081019190915260400160002054919061081f565b6105d8565b5060019392505050565b60055460ff1690565b600061036361040f6105d4565b846103ea85600160006104206105d4565b6001600160a01b03908116825260208083019390935260409182016000908120918c168152925290205490610573565b6001600160a01b031660009081526020819052604090205490565b60048054604080516020601f60026000196101006001881615020190951694909404938401819004810282018101909252828152606093909290918301828280156103455780601f1061031a57610100808354040283529160200191610345565b60006103636104d96105d4565b846103ea8560405180606001604052806025815260200161099860259139600160006105036105d4565b6001600160a01b03908116825260208083019390935260409182016000908120918d1681529252902054919061081f565b60006103636105416105d4565b84846106c4565b6001600160a01b03918216600090815260016020908152604080832093909416825291909152205490565b6000828201838110156105cd576040805162461bcd60e51b815260206004820152601b60248201527f536166654d6174683a206164646974696f6e206f766572666c6f770000000000604482015290519081900360640190fd5b9392505050565b3390565b6001600160a01b03831661061d5760405162461bcd60e51b81526004018080602001828103825260248152602001806109746024913960400191505060405180910390fd5b6001600160a01b0382166106625760405162461bcd60e51b81526004018080602001828103825260228152602001806108df6022913960400191505060405180910390fd5b6001600160a01b03808416600081815260016020908152604080832094871680845294825291829020859055815185815291517f8c5be1e5ebec7d5bd14f71427d1e84f3dd0314c0f7b2291e5b200ac8c7c3b9259281900390910190a3505050565b6001600160a01b0383166107095760405162461bcd60e51b815260040180806020018281038252602581526020018061094f6025913960400191505060405180910390fd5b6001600160a01b03821661074e5760405162461bcd60e51b81526004018080602001828103825260238152602001806108bc6023913960400191505060405180910390fd5b6107598383836108b6565b61079681604051806060016040528060268152602001610901602691396001600160a01b038616600090815260208190526040902054919061081f565b6001600160a01b0380851660009081526020819052604080822093909355908416815220546107c59082610573565b6001600160a01b038084166000818152602081815260409182902094909455805185815290519193928716927fddf252ad1be2c89b69c2b068fc378daa952ba7f163c4a11628f55a4df523b3ef92918290030190a3505050565b600081848411156108ae5760405162461bcd60e51b81526004018080602001828103825283818151815260200191508051906020019080838360005b8381101561087357818101518382015260200161085b565b50505050905090810190601f1680156108a05780820380516001836020036101000a031916815260200191505b509250505060405180910390fd5b505050900390565b50505056fe45524332303a207472616e7366657220746f20746865207a65726f206164647265737345524332303a20617070726f766520746f20746865207a65726f206164647265737345524332303a207472616e7366657220616d6f756e7420657863656564732062616c616e636545524332303a207472616e7366657220616d6f756e74206578636565647320616c6c6f77616e636545524332303a207472616e736665722066726f6d20746865207a65726f206164647265737345524332303a20617070726f76652066726f6d20746865207a65726f206164647265737345524332303a2064656372656173656420616c6c6f77616e63652062656c6f77207a65726fa26469706673582212200683f8b0fb14488a49c60cb8890ce77a403cf47c1e6b19af4b0cd05d3dc0468164736f6c634300060c0033",
  "immutableReferences": {},
  "source": "pragma solidity 0.6.12;\n\nimport \"@openzeppelin/contracts/token/ERC20/IERC20.sol\";\nimport \"./MockERC20.sol\";\n\ncontract Swap {\n    IERC20 public tokenA;\n    IERC20 public tokenB;\n\n    constructor() public {\n        // Each contract will mint 1m tokens on construction\n        tokenA = new MockERC20(\"FakeDAI\", \"DAI\");\n        tokenB = new MockERC20(\"FakexDAI\", \"xDAI\");\n\n        // give sender some tokens to trade\n        uint256 _liquidityToSend = 250000000000000000000000; // 250k tokens\n        tokenA.transfer(msg.sender, _liquidityToSend);\n        tokenB.transfer(msg.sender, _liquidityToSend);\n    }\n\n    function swap(IERC20 _input, uint256 _amount, uint256 _fee, address _beneficiary) external {\n        // make sure input is one of the tokens we have\n        address inputAddress = address(_input);\n        bool isTokenA = inputAddress == address(tokenA);\n        require(isTokenA || inputAddress == address(tokenB), \"Invalid input\");\n\n        // figure out what the output token is\n        IERC20 output = isTokenA ? tokenB : tokenA;\n\n        // make sure we have enough output\n        address self = address(this);\n        require(output.balanceOf(self) >= _amount, \"not enough output\");\n\n        // swap the tokens\n        _input.transferFrom(_beneficiary, self, _amount);\n        output.transfer(_beneficiary, _amount - _fee);\n    }\n\n    // Will allow external callers to sense check if `_tokenAddress` is either tokenA or tokenB which would allow trading\n    function isValidInputOrOutputToken(address _tokenAddress) external view returns (bool) {\n        address tokenAAddress = address(tokenA);\n        address tokenBAddress = address(tokenB);\n        return _tokenAddress == tokenAAddress || _tokenAddress == tokenBAddress;\n    }\n}\n",
  "sourcePath": "/Users/vincentdealmeida/Projects/asset-swap-service/contracts/contracts/Swap.sol",
  "compiler": {
    "name": "solc",
    "version": "0.6.12+commit.27d51765.Emscripten.clang"
  },
  "schemaVersion": "3.2.5",
  "updatedAt": "2020-09-24T09:59:40.962Z",
  "networkType": "ethereum",
  "devdoc": {
    "kind": "dev",
    "methods": {},
    "version": 1
  },
  "userdoc": {
    "kind": "user",
    "methods": {},
    "version": 1
  }
}